{
  "_format": "hh-sol-artifact-1",
  "contractName": "PikaPolygon",
  "sourceName": "contracts/PikaPolygon.sol",
  "abi": [
    {
      "anonymous": false,
      "inputs": [
        {
          "indexed": true,
          "internalType": "address",
          "name": "owner",
          "type": "address"
        },
        {
          "indexed": true,
          "internalType": "address",
          "name": "spender",
          "type": "address"
        },
        {
          "indexed": false,
          "internalType": "uint256",
          "name": "value",
          "type": "uint256"
        }
      ],
      "name": "Approval",
      "type": "event"
    },
    {
      "anonymous": false,
      "inputs": [
        {
          "indexed": false,
          "internalType": "address",
          "name": "oldBeneficiary",
          "type": "address"
        },
        {
          "indexed": false,
          "internalType": "address",
          "name": "newBeneficiary",
          "type": "address"
        },
        {
          "indexed": false,
          "internalType": "uint256",
          "name": "oldFee",
          "type": "uint256"
        },
        {
          "indexed": false,
          "internalType": "uint256",
          "name": "newFee",
          "type": "uint256"
        }
      ],
      "name": "BeneficiaryRewardUpdated",
      "type": "event"
    },
    {
      "anonymous": false,
      "inputs": [
        {
          "indexed": false,
          "internalType": "address",
          "name": "account",
          "type": "address"
        },
        {
          "indexed": false,
          "internalType": "bool",
          "name": "excluded",
          "type": "bool"
        }
      ],
      "name": "ExcludedFromFeeUpdated",
      "type": "event"
    },
    {
      "anonymous": false,
      "inputs": [
        {
          "indexed": false,
          "internalType": "bool",
          "name": "enabled",
          "type": "bool"
        }
      ],
      "name": "FeesEnabledUpdated",
      "type": "event"
    },
    {
      "anonymous": false,
      "inputs": [
        {
          "indexed": false,
          "internalType": "address",
          "name": "oldBeneficiary",
          "type": "address"
        },
        {
          "indexed": false,
          "internalType": "address",
          "name": "newBeneficiary",
          "type": "address"
        },
        {
          "indexed": false,
          "internalType": "uint256",
          "name": "oldFee",
          "type": "uint256"
        },
        {
          "indexed": false,
          "internalType": "uint256",
          "name": "newFee",
          "type": "uint256"
        }
      ],
      "name": "LiquidityRewardUpdated",
      "type": "event"
    },
    {
      "anonymous": false,
      "inputs": [
        {
          "indexed": false,
          "internalType": "uint256",
          "name": "oldAmount",
          "type": "uint256"
        },
        {
          "indexed": false,
          "internalType": "uint256",
          "name": "newAmount",
          "type": "uint256"
        }
      ],
      "name": "MinSupplyUpdated",
      "type": "event"
    },
    {
      "anonymous": false,
      "inputs": [
        {
          "indexed": true,
          "internalType": "address",
          "name": "previousOwner",
          "type": "address"
        },
        {
          "indexed": true,
          "internalType": "address",
          "name": "newOwner",
          "type": "address"
        }
      ],
      "name": "OwnershipTransferred",
      "type": "event"
    },
    {
      "anonymous": false,
      "inputs": [
        {
          "indexed": false,
          "internalType": "address",
          "name": "oldBeneficiary",
          "type": "address"
        },
        {
          "indexed": false,
          "internalType": "address",
          "name": "newBeneficiary",
          "type": "address"
        },
        {
          "indexed": false,
          "internalType": "uint256",
          "name": "oldFee",
          "type": "uint256"
        },
        {
          "indexed": false,
          "internalType": "uint256",
          "name": "newFee",
          "type": "uint256"
        }
      ],
      "name": "StakingRewardUpdated",
      "type": "event"
    },
    {
      "anonymous": false,
      "inputs": [
        {
          "indexed": false,
          "internalType": "bool",
          "name": "enabled",
          "type": "bool"
        }
      ],
      "name": "SwapEnabledUpdated",
      "type": "event"
    },
    {
      "anonymous": false,
      "inputs": [
        {
          "indexed": true,
          "internalType": "address",
          "name": "from",
          "type": "address"
        },
        {
          "indexed": true,
          "internalType": "address",
          "name": "to",
          "type": "address"
        },
        {
          "indexed": false,
          "internalType": "uint256",
          "name": "value",
          "type": "uint256"
        }
      ],
      "name": "Transfer",
      "type": "event"
    },
    {
      "inputs": [],
      "name": "DOMAIN_SEPARATOR",
      "outputs": [
        {
          "internalType": "bytes32",
          "name": "",
          "type": "bytes32"
        }
      ],
      "stateMutability": "view",
      "type": "function"
    },
    {
      "inputs": [],
      "name": "WETH",
      "outputs": [
        {
          "internalType": "address",
          "name": "",
          "type": "address"
        }
      ],
      "stateMutability": "view",
      "type": "function"
    },
    {
      "inputs": [
        {
          "internalType": "address",
          "name": "owner",
          "type": "address"
        },
        {
          "internalType": "address",
          "name": "spender",
          "type": "address"
        }
      ],
      "name": "allowance",
      "outputs": [
        {
          "internalType": "uint256",
          "name": "",
          "type": "uint256"
        }
      ],
      "stateMutability": "view",
      "type": "function"
    },
    {
      "inputs": [
        {
          "internalType": "address",
          "name": "spender",
          "type": "address"
        },
        {
          "internalType": "uint256",
          "name": "amount",
          "type": "uint256"
        }
      ],
      "name": "approve",
      "outputs": [
        {
          "internalType": "bool",
          "name": "",
          "type": "bool"
        }
      ],
      "stateMutability": "nonpayable",
      "type": "function"
    },
    {
      "inputs": [
        {
          "internalType": "address",
          "name": "account",
          "type": "address"
        }
      ],
      "name": "balanceOf",
      "outputs": [
        {
          "internalType": "uint256",
          "name": "",
          "type": "uint256"
        }
      ],
      "stateMutability": "view",
      "type": "function"
    },
    {
      "inputs": [],
      "name": "beneficiary",
      "outputs": [
        {
          "internalType": "uint256",
          "name": "",
          "type": "uint256"
        }
      ],
      "stateMutability": "view",
      "type": "function"
    },
    {
      "inputs": [
        {
          "internalType": "uint256",
          "name": "value",
          "type": "uint256"
        }
      ],
      "name": "burn",
      "outputs": [],
      "stateMutability": "nonpayable",
      "type": "function"
    },
    {
      "inputs": [],
      "name": "childChainManager",
      "outputs": [
        {
          "internalType": "address",
          "name": "",
          "type": "address"
        }
      ],
      "stateMutability": "view",
      "type": "function"
    },
    {
      "inputs": [],
      "name": "claimOwnership",
      "outputs": [],
      "stateMutability": "nonpayable",
      "type": "function"
    },
    {
      "inputs": [],
      "name": "decimals",
      "outputs": [
        {
          "internalType": "uint8",
          "name": "",
          "type": "uint8"
        }
      ],
      "stateMutability": "view",
      "type": "function"
    },
    {
      "inputs": [
        {
          "internalType": "address",
          "name": "spender",
          "type": "address"
        },
        {
          "internalType": "uint256",
          "name": "subtractedValue",
          "type": "uint256"
        }
      ],
      "name": "decreaseAllowance",
      "outputs": [
        {
          "internalType": "bool",
          "name": "",
          "type": "bool"
        }
      ],
      "stateMutability": "nonpayable",
      "type": "function"
    },
    {
      "inputs": [
        {
          "internalType": "address",
          "name": "user",
          "type": "address"
        },
        {
          "internalType": "bytes",
          "name": "depositData",
          "type": "bytes"
        }
      ],
      "name": "deposit",
      "outputs": [],
      "stateMutability": "nonpayable",
      "type": "function"
    },
    {
      "inputs": [],
      "name": "feesEnabled",
      "outputs": [
        {
          "internalType": "bool",
          "name": "",
          "type": "bool"
        }
      ],
      "stateMutability": "view",
      "type": "function"
    },
    {
      "inputs": [
        {
          "internalType": "address",
          "name": "spender",
          "type": "address"
        },
        {
          "internalType": "uint256",
          "name": "addedValue",
          "type": "uint256"
        }
      ],
      "name": "increaseAllowance",
      "outputs": [
        {
          "internalType": "bool",
          "name": "",
          "type": "bool"
        }
      ],
      "stateMutability": "nonpayable",
      "type": "function"
    },
    {
      "inputs": [
        {
          "internalType": "uint256",
          "name": "_minSupply",
          "type": "uint256"
        },
        {
          "internalType": "uint256",
          "name": "_totalSupply",
          "type": "uint256"
        },
        {
          "internalType": "address",
          "name": "_beneficiary",
          "type": "address"
        },
        {
          "internalType": "string",
          "name": "_name",
          "type": "string"
        },
        {
          "internalType": "string",
          "name": "_symbol",
          "type": "string"
        },
        {
          "internalType": "uint256",
          "name": "_initial_fee",
          "type": "uint256"
        }
      ],
      "name": "initialize",
      "outputs": [],
      "stateMutability": "nonpayable",
      "type": "function"
    },
    {
      "inputs": [
        {
          "internalType": "address",
          "name": "",
          "type": "address"
        }
      ],
      "name": "isExcludedFromFee",
      "outputs": [
        {
          "internalType": "bool",
          "name": "",
          "type": "bool"
        }
      ],
      "stateMutability": "view",
      "type": "function"
    },
    {
      "inputs": [],
      "name": "liquidity",
      "outputs": [
        {
          "internalType": "uint256",
          "name": "",
          "type": "uint256"
        }
      ],
      "stateMutability": "view",
      "type": "function"
    },
    {
      "inputs": [],
      "name": "minSupply",
      "outputs": [
        {
          "internalType": "uint256",
          "name": "",
          "type": "uint256"
        }
      ],
      "stateMutability": "view",
      "type": "function"
    },
    {
      "inputs": [],
      "name": "name",
      "outputs": [
        {
          "internalType": "string",
          "name": "",
          "type": "string"
        }
      ],
      "stateMutability": "view",
      "type": "function"
    },
    {
      "inputs": [
        {
          "internalType": "address",
          "name": "owner",
          "type": "address"
        }
      ],
      "name": "nonces",
      "outputs": [
        {
          "internalType": "uint256",
          "name": "",
          "type": "uint256"
        }
      ],
      "stateMutability": "view",
      "type": "function"
    },
    {
      "inputs": [],
      "name": "owner",
      "outputs": [
        {
          "internalType": "address",
          "name": "",
          "type": "address"
        }
      ],
      "stateMutability": "view",
      "type": "function"
    },
    {
      "inputs": [
        {
          "internalType": "address",
          "name": "_beneficiary",
          "type": "address"
        },
        {
          "internalType": "uint256",
          "name": "_fee",
          "type": "uint256"
        }
      ],
      "name": "packBeneficiary",
      "outputs": [
        {
          "internalType": "uint256",
          "name": "",
          "type": "uint256"
        }
      ],
      "stateMutability": "pure",
      "type": "function"
    },
    {
      "inputs": [
        {
          "internalType": "address",
          "name": "owner",
          "type": "address"
        },
        {
          "internalType": "address",
          "name": "spender",
          "type": "address"
        },
        {
          "internalType": "uint256",
          "name": "value",
          "type": "uint256"
        },
        {
          "internalType": "uint256",
          "name": "deadline",
          "type": "uint256"
        },
        {
          "internalType": "uint8",
          "name": "v",
          "type": "uint8"
        },
        {
          "internalType": "bytes32",
          "name": "r",
          "type": "bytes32"
        },
        {
          "internalType": "bytes32",
          "name": "s",
          "type": "bytes32"
        }
      ],
      "name": "permit",
      "outputs": [],
      "stateMutability": "nonpayable",
      "type": "function"
    },
    {
      "inputs": [
        {
          "internalType": "address payable",
          "name": "_newOwner",
          "type": "address"
        }
      ],
      "name": "proposeOwner",
      "outputs": [],
      "stateMutability": "nonpayable",
      "type": "function"
    },
    {
      "inputs": [],
      "name": "proposedOwner",
      "outputs": [
        {
          "internalType": "address",
          "name": "",
          "type": "address"
        }
      ],
      "stateMutability": "view",
      "type": "function"
    },
    {
      "inputs": [],
      "name": "router",
      "outputs": [
        {
          "internalType": "contract IUniswapV2Router",
          "name": "",
          "type": "address"
        }
      ],
      "stateMutability": "pure",
      "type": "function"
    },
    {
      "inputs": [
        {
          "internalType": "address",
          "name": "_newBeneficiary",
          "type": "address"
        },
        {
          "internalType": "uint256",
          "name": "_fee",
          "type": "uint256"
        }
      ],
      "name": "setBeneficiary",
      "outputs": [],
      "stateMutability": "nonpayable",
      "type": "function"
    },
    {
      "inputs": [
        {
          "internalType": "address",
          "name": "_account",
          "type": "address"
        },
        {
          "internalType": "bool",
          "name": "_excluded",
          "type": "bool"
        }
      ],
      "name": "setExcludeFromFee",
      "outputs": [],
      "stateMutability": "nonpayable",
      "type": "function"
    },
    {
      "inputs": [
        {
          "internalType": "bool",
          "name": "_enabled",
          "type": "bool"
        }
      ],
      "name": "setFeesEnabled",
      "outputs": [],
      "stateMutability": "nonpayable",
      "type": "function"
    },
    {
      "inputs": [
        {
          "internalType": "address",
          "name": "_contractAddress",
          "type": "address"
        },
        {
          "internalType": "uint256",
          "name": "_fee",
          "type": "uint256"
        }
      ],
      "name": "setLiquidity",
      "outputs": [],
      "stateMutability": "nonpayable",
      "type": "function"
    },
    {
      "inputs": [
        {
          "internalType": "uint256",
          "name": "_newMinSupply",
          "type": "uint256"
        }
      ],
      "name": "setMinSupply",
      "outputs": [],
      "stateMutability": "nonpayable",
      "type": "function"
    },
    {
      "inputs": [
        {
          "internalType": "address",
          "name": "_contractAddress",
          "type": "address"
        },
        {
          "internalType": "uint256",
          "name": "_fee",
          "type": "uint256"
        }
      ],
      "name": "setStaking",
      "outputs": [],
      "stateMutability": "nonpayable",
      "type": "function"
    },
    {
      "inputs": [
        {
          "internalType": "bool",
          "name": "_enabled",
          "type": "bool"
        }
      ],
      "name": "setSwapEnabled",
      "outputs": [],
      "stateMutability": "nonpayable",
      "type": "function"
    },
    {
      "inputs": [],
      "name": "staking",
      "outputs": [
        {
          "internalType": "uint256",
          "name": "",
          "type": "uint256"
        }
      ],
      "stateMutability": "view",
      "type": "function"
    },
    {
      "inputs": [],
      "name": "swapEnabled",
      "outputs": [
        {
          "internalType": "bool",
          "name": "",
          "type": "bool"
        }
      ],
      "stateMutability": "view",
      "type": "function"
    },
    {
      "inputs": [],
      "name": "symbol",
      "outputs": [
        {
          "internalType": "string",
          "name": "",
          "type": "string"
        }
      ],
      "stateMutability": "view",
      "type": "function"
    },
    {
      "inputs": [],
      "name": "totalSupply",
      "outputs": [
        {
          "internalType": "uint256",
          "name": "",
          "type": "uint256"
        }
      ],
      "stateMutability": "view",
      "type": "function"
    },
    {
      "inputs": [
        {
          "internalType": "address",
          "name": "recipient",
          "type": "address"
        },
        {
          "internalType": "uint256",
          "name": "amount",
          "type": "uint256"
        }
      ],
      "name": "transfer",
      "outputs": [
        {
          "internalType": "bool",
          "name": "",
          "type": "bool"
        }
      ],
      "stateMutability": "nonpayable",
      "type": "function"
    },
    {
      "inputs": [
        {
          "internalType": "address",
          "name": "sender",
          "type": "address"
        },
        {
          "internalType": "address",
          "name": "recipient",
          "type": "address"
        },
        {
          "internalType": "uint256",
          "name": "amount",
          "type": "uint256"
        }
      ],
      "name": "transferFrom",
      "outputs": [
        {
          "internalType": "bool",
          "name": "",
          "type": "bool"
        }
      ],
      "stateMutability": "nonpayable",
      "type": "function"
    },
    {
      "inputs": [],
      "name": "uniswapPair",
      "outputs": [
        {
          "internalType": "address",
          "name": "",
          "type": "address"
        }
      ],
      "stateMutability": "view",
      "type": "function"
    },
    {
      "inputs": [
        {
          "internalType": "uint256",
          "name": "_beneficiary",
          "type": "uint256"
        }
      ],
      "name": "unpackBeneficiary",
      "outputs": [
        {
          "internalType": "address",
          "name": "",
          "type": "address"
        },
        {
          "internalType": "uint256",
          "name": "",
          "type": "uint256"
        }
      ],
      "stateMutability": "pure",
      "type": "function"
    },
    {
      "inputs": [
        {
          "internalType": "uint256",
          "name": "amount",
          "type": "uint256"
        }
      ],
      "name": "withdraw",
      "outputs": [],
      "stateMutability": "nonpayable",
      "type": "function"
    }
  ],
  "bytecode": "0x608060405234801561001057600080fd5b5061338e806100206000396000f3fe608060405234801561001057600080fd5b50600436106102de5760003560e01c80638da5cb5b11610186578063c816841b116100e3578063d61e895611610097578063f370988811610071578063f370988814610636578063f4069cba14610649578063f887ea401461065c57600080fd5b8063d61e8956146105c6578063dd62ed3e146105ea578063e01af92c1461062357600080fd5b8063cf2c52cb116100c8578063cf2c52cb1461058d578063d153b60c146105a0578063d505accf146105b357600080fd5b8063c816841b14610559578063c8291d841461057257600080fd5b8063a901dd921161013a578063ad5c46481161011f578063ad5c464814610520578063af9549e014610533578063b5ed298a1461054657600080fd5b8063a901dd92146104fa578063a9059cbb1461050d57600080fd5b806395d89b411161016b57806395d89b41146104d2578063a457c2d7146104da578063a64e4f8a146104ed57600080fd5b80638da5cb5b1461049e5780638fe6cae3146104c957600080fd5b8063395093511161023f57806356e8e08e116101f357806370a08231116101cd57806370a082311461044f57806379c4ad7e146104785780637ecebe001461048b57600080fd5b806356e8e08e146103f45780636ddd17131461042a5780636fd1f2701461043c57600080fd5b80634cf088d9116102245780634cf088d9146103c05780634e71e0c8146103c95780635342acb4146103d157600080fd5b8063395093511461039a57806342966c68146103ad57600080fd5b806323b872dd11610296578063313ce5671161027b578063313ce5671461037a5780633644e5151461038957806338af3eed1461039157600080fd5b806323b872dd146103545780632e1a7d4d1461036757600080fd5b806318160ddd116102c757806318160ddd146103245780631a686502146103365780631ac2874b1461033f57600080fd5b806306fdde03146102e3578063095ea7b314610301575b600080fd5b6102eb610676565b6040516102f89190613140565b60405180910390f35b61031461030f366004613049565b610708565b60405190151581526020016102f8565b6037545b6040519081526020016102f8565b61032860d45481565b61035261034d36600461308e565b61071e565b005b610314610362366004612f0d565b6107be565b61035261037536600461308e565b61087d565b604051601281526020016102f8565b61032861088b565b61032860d25481565b6103146103a8366004613049565b61089a565b6103526103bb36600461308e565b6108d6565b61032860d35481565b610352610933565b6103146103df366004612e9d565b60d06020526000908152604090205460ff1681565b61040b61040236600461308e565b9060a082901c90565b604080516001600160a01b0390931683526020830191909152016102f8565b60d15461031490610100900460ff1681565b61035261044a366004613049565b6109c5565b61032861045d366004612e9d565b6001600160a01b031660009081526035602052604090205490565b6103526104863660046130a6565b610b61565b610328610499366004612e9d565b610c3b565b6033546104b1906001600160a01b031681565b6040516001600160a01b0390911681526020016102f8565b61032860cf5481565b6102eb610c5b565b6103146104e8366004613049565b610c6a565b60d1546103149060ff1681565b610352610508366004613074565b610d1b565b61031461051b366004613049565b610ddb565b60ce546104b1906001600160a01b031681565b610352610541366004612fc2565b610de8565b610352610554366004612e9d565b610ec3565b60d1546104b1906201000090046001600160a01b031681565b6104b173a6fa4fb5f76172d178d61b04b0ecd319c5d1c0aa81565b61035261059b366004612ff6565b610f57565b6034546104b1906001600160a01b031681565b6103526105c1366004612f4d565b611000565b6103286105d4366004613049565b60a081901b6001600160a01b0383161792915050565b6103286105f8366004612ed5565b6001600160a01b03918216600090815260366020908152604080832093909416825291909152205490565b610352610631366004613074565b611146565b610352610644366004613049565b6111ef565b610352610657366004613049565b61138b565b73a5e0829caced8ffdd4de3c43696c57f7d7a678ff6104b1565b606060388054610685906132c6565b80601f01602080910402602001604051908101604052809291908181526020018280546106b1906132c6565b80156106fe5780601f106106d3576101008083540402835291602001916106fe565b820191906000526020600020905b8154815290600101906020018083116106e157829003601f168201915b5050505050905090565b6000610715338484611527565b50600192915050565b6033546001600160a01b0316331461077d5760405162461bcd60e51b815260206004820152601060248201527f4f776e65643a206e6f74206f776e65720000000000000000000000000000000060448201526064015b60405180910390fd5b60cf5460408051918252602082018390527f8e485513f38ca4c23b0c8170161c4fd5c16f934ea7c068b376f646b0194d1b8e910160405180910390a160cf55565b60006107cb84848461167f565b6001600160a01b0384166000908152603660209081526040808320338452909152902054828110156108655760405162461bcd60e51b815260206004820152602860248201527f45524332303a207472616e7366657220616d6f756e742065786365656473206160448201527f6c6c6f77616e63650000000000000000000000000000000000000000000000006064820152608401610774565b6108728533858403611527565b506001949350505050565b610888335b826118c2565b50565b6000610895611a47565b905090565b3360008181526036602090815260408083206001600160a01b038716845290915281205490916107159185906108d1908690613221565b611527565b6108df33610882565b60cf5460375410156108885760405162461bcd60e51b815260206004820152601f60248201527f746f74616c20737570706c792065786365656473206d696e20737570706c79006044820152606401610774565b6034546001600160a01b0316331461094a57600080fd5b6034546033546040516001600160a01b0392831692909116907f8be0079c531659141344cd1fd0a4f28419497f9722a3daafe3b4186f6b6457e090600090a3603454603380547fffffffffffffffffffffffff0000000000000000000000000000000000000000166001600160a01b03909216919091179055565b81818015610a28576001600160a01b038216610a235760405162461bcd60e51b815260206004820152600f60248201527f61646472657373206e6f742073657400000000000000000000000000000000006044820152606401610774565b610a7f565b6001600160a01b03821615610a7f5760405162461bcd60e51b815260206004820152601360248201527f736574206164647265737320746f207a65726f000000000000000000000000006044820152606401610774565b6033546001600160a01b03163314610ad95760405162461bcd60e51b815260206004820152601060248201527f4f776e65643a206e6f74206f776e6572000000000000000000000000000000006044820152606401610774565b610ae4846001610de8565b600080610af660d2549060a082901c90565b604080516001600160a01b0380851682528a1660208201819052818301849052606082018a9052915193955091935060a088901b17917f453873136650c88eb8b940e72829c86df6b8f7b66ebc69173766deb2b24808629181900360800190a160d255505050505050565b600054610100900460ff1680610b7a575060005460ff16155b610bec5760405162461bcd60e51b815260206004820152602e60248201527f496e697469616c697a61626c653a20636f6e747261637420697320616c72656160448201527f647920696e697469616c697a65640000000000000000000000000000000000006064820152608401610774565b600054610100900460ff16158015610c0e576000805461ffff19166101011790555b610c1e8989898989898989611ac2565b8015610c30576000805461ff00191690555b505050505050505050565b6001600160a01b0381166000908152609b60205260408120545b92915050565b606060398054610685906132c6565b3360009081526036602090815260408083206001600160a01b038616845290915281205482811015610d045760405162461bcd60e51b815260206004820152602560248201527f45524332303a2064656372656173656420616c6c6f77616e63652062656c6f7760448201527f207a65726f0000000000000000000000000000000000000000000000000000006064820152608401610774565b610d113385858403611527565b5060019392505050565b6033546001600160a01b03163314610d755760405162461bcd60e51b815260206004820152601060248201527f4f776e65643a206e6f74206f776e6572000000000000000000000000000000006044820152606401610774565b60405181151581527fba500994dffbabeeb9e430f03a978d7b975359a20c5bde3a6ccb5a0c454680c89060200160405180910390a160d180547fffffffffffffffffffffffffffffffffffffffffffffffffffffffffffffff0016911515919091179055565b600061071533848461167f565b6033546001600160a01b03163314610e425760405162461bcd60e51b815260206004820152601060248201527f4f776e65643a206e6f74206f776e6572000000000000000000000000000000006044820152606401610774565b6001600160a01b038216600081815260d0602090815260409182902080547fffffffffffffffffffffffffffffffffffffffffffffffffffffffffffffff00168515159081179091558251938452908301527f318c131114339c004fff0a22fcdbbc0566bb2a7cd3aa1660e636ec5a66784ff2910160405180910390a15050565b6033546001600160a01b03163314610f1d5760405162461bcd60e51b815260206004820152601060248201527f4f776e65643a206e6f74206f776e6572000000000000000000000000000000006044820152606401610774565b603480547fffffffffffffffffffffffff0000000000000000000000000000000000000000166001600160a01b0392909216919091179055565b3373a6fa4fb5f76172d178d61b04b0ecd319c5d1c0aa14610fe05760405162461bcd60e51b815260206004820152602b60248201527f6f6e6c79206368696c6420636861696e206d616e616765722063616e2064657060448201527f6f73697420746f6b656e730000000000000000000000000000000000000000006064820152608401610774565b6000610fee8284018461308e565b9050610ffa8482612002565b50505050565b834211156110505760405162461bcd60e51b815260206004820152601d60248201527f45524332305065726d69743a206578706972656420646561646c696e650000006044820152606401610774565b6000609c548888886110618c6120e2565b6040805160208101969096526001600160a01b0394851690860152929091166060840152608083015260a082015260c0810186905260e00160405160208183030381529060405280519060200120905060006110bc8261210a565b905060006110cc82878787612173565b9050896001600160a01b0316816001600160a01b03161461112f5760405162461bcd60e51b815260206004820152601e60248201527f45524332305065726d69743a20696e76616c6964207369676e617475726500006044820152606401610774565b61113a8a8a8a611527565b50505050505050505050565b6033546001600160a01b031633146111a05760405162461bcd60e51b815260206004820152601060248201527f4f776e65643a206e6f74206f776e6572000000000000000000000000000000006044820152606401610774565b60405181151581527f436b6cf978c7b6998fcce43dfe4d37e3a0dc2bb780144a2eb55d7138201e8a129060200160405180910390a160d180549115156101000261ff0019909216919091179055565b81818015611252576001600160a01b03821661124d5760405162461bcd60e51b815260206004820152600f60248201527f61646472657373206e6f742073657400000000000000000000000000000000006044820152606401610774565b6112a9565b6001600160a01b038216156112a95760405162461bcd60e51b815260206004820152601360248201527f736574206164647265737320746f207a65726f000000000000000000000000006044820152606401610774565b6033546001600160a01b031633146113035760405162461bcd60e51b815260206004820152601060248201527f4f776e65643a206e6f74206f776e6572000000000000000000000000000000006044820152606401610774565b61130e846001610de8565b60008061132060d3549060a082901c90565b604080516001600160a01b0380851682528a1660208201819052818301849052606082018a9052915193955091935060a088901b17917f01882fab9b299e3573d2e9bf73d533bb8f9b5fd998713b63df51a02dcb57867b9181900360800190a160d355505050505050565b818180156113ee576001600160a01b0382166113e95760405162461bcd60e51b815260206004820152600f60248201527f61646472657373206e6f742073657400000000000000000000000000000000006044820152606401610774565b611445565b6001600160a01b038216156114455760405162461bcd60e51b815260206004820152601360248201527f736574206164647265737320746f207a65726f000000000000000000000000006044820152606401610774565b6033546001600160a01b0316331461149f5760405162461bcd60e51b815260206004820152601060248201527f4f776e65643a206e6f74206f776e6572000000000000000000000000000000006044820152606401610774565b6114aa846001610de8565b6000806114bc60d4549060a082901c90565b604080516001600160a01b0380851682528a1660208201819052818301849052606082018a9052915193955091935060a088901b17917fcac88aa2c82aea657ebaca31d44065bb708ab6bc483f5db5868fc3dde2644cc39181900360800190a160d455505050505050565b6001600160a01b0383166115a25760405162461bcd60e51b8152602060048201526024808201527f45524332303a20617070726f76652066726f6d20746865207a65726f2061646460448201527f72657373000000000000000000000000000000000000000000000000000000006064820152608401610774565b6001600160a01b03821661161e5760405162461bcd60e51b815260206004820152602260248201527f45524332303a20617070726f766520746f20746865207a65726f20616464726560448201527f73730000000000000000000000000000000000000000000000000000000000006064820152608401610774565b6001600160a01b0383811660008181526036602090815260408083209487168084529482529182902085905590518481527f8c5be1e5ebec7d5bd14f71427d1e84f3dd0314c0f7b2291e5b200ac8c7c3b925910160405180910390a3505050565b60d15460ff1615806116a957506001600160a01b038316600090815260d0602052604090205460ff165b806116cc57506001600160a01b038216600090815260d0602052604090205460ff165b80611711575060d1546001600160a01b03848116620100009092041614801561171157506001600160a01b03821673a5e0829caced8ffdd4de3c43696c57f7d7a678ff145b1561172657611721838383612370565b505050565b60008061173860d2549060a082901c90565b9150915060008061174e60d3549060a082901c90565b9150915060008061176460d4549060a082901c90565b909250905084156117a5576117798786612587565b60d154909550600090610100900460ff166117945786611796565b305b90506117a38a8288612370565b505b60006117b186896132af565b905060006117c0896019612587565b905060cf54816117cf60375490565b6117d991906132af565b106117f5576117e88b826118c2565b6117f281836132af565b91505b841561181f576118058986612587565b94506118128b8787612370565b61181c85836132af565b91505b82156118495761182f8984612587565b925061183c8b8585612370565b61184683836132af565b91505b60d154610100900460ff168015611874575060d1546001600160a01b038c8116620100009092041614155b801561189d57506001600160a01b038b1673a5e0829caced8ffdd4de3c43696c57f7d7a678ff14155b156118aa576118aa6125a7565b6118b58b8b84612370565b5050505050505050505050565b6001600160a01b03821661193e5760405162461bcd60e51b815260206004820152602160248201527f45524332303a206275726e2066726f6d20746865207a65726f2061646472657360448201527f73000000000000000000000000000000000000000000000000000000000000006064820152608401610774565b6001600160a01b038216600090815260356020526040902054818110156119cd5760405162461bcd60e51b815260206004820152602260248201527f45524332303a206275726e20616d6f756e7420657863656564732062616c616e60448201527f63650000000000000000000000000000000000000000000000000000000000006064820152608401610774565b6001600160a01b03831660009081526035602052604081208383039055603780548492906119fc9084906132af565b90915550506040518281526000906001600160a01b038516907fddf252ad1be2c89b69c2b068fc378daa952ba7f163c4a11628f55a4df523b3ef9060200160405180910390a3505050565b60006108957f8b73c3c69bb8fe3d512ecc4cf759cc79239f7b179b0ffacaa9a75d522b39400f611a7660675490565b6068546040805160208101859052908101839052606081018290524660808201523060a082015260009060c0016040516020818303038152906040528051906020012090509392505050565b600054610100900460ff1680611adb575060005460ff16155b611b4d5760405162461bcd60e51b815260206004820152602e60248201527f496e697469616c697a61626c653a20636f6e747261637420697320616c72656160448201527f647920696e697469616c697a65640000000000000000000000000000000000006064820152608401610774565b600054610100900460ff16158015611b6f576000805461ffff19166101011790555b611b77612736565b611bea86868080601f01602080910402602001604051908101604052809392919081815260200183838082843760009201919091525050604080516020601f8a01819004810282018101909252888152925088915087908190840183828082843760009201919091525061284f92505050565b611c2986868080601f01602080910402602001604051908101604052809392919081815260200183838082843760009201919091525061292492505050565b60cf899055611c383389612002565b600073a5e0829caced8ffdd4de3c43696c57f7d7a678ff6001600160a01b031663c45a01556040518163ffffffff1660e01b815260040160206040518083038186803b158015611c8757600080fd5b505afa158015611c9b573d6000803e3d6000fd5b505050506040513d601f19601f82011682018060405250810190611cbf9190612eb9565b9050600073a5e0829caced8ffdd4de3c43696c57f7d7a678ff6001600160a01b031663ad5c46486040518163ffffffff1660e01b815260040160206040518083038186803b158015611d1057600080fd5b505afa158015611d24573d6000803e3d6000fd5b505050506040513d601f19601f82011682018060405250810190611d489190612eb9565b60ce80547fffffffffffffffffffffffff0000000000000000000000000000000000000000166001600160a01b03831690811790915590915060009081903011611d93573083611d96565b82305b6040517fffffffffffffffffffffffffffffffffffffffff000000000000000000000000606084811b8216602084015283901b1660348201529193509150600090859060480160405160208183030381529060405280519060200120604051602001611e7f9291907fff00000000000000000000000000000000000000000000000000000000000000815260609290921b7fffffffffffffffffffffffffffffffffffffffff00000000000000000000000016600183015260158201527f96e8ac4277198ff8b6f785478aa9a39f403cb768dd02cbee326c3e7da348845f603582015260550190565b604080518083037fffffffffffffffffffffffffffffffffffffffffffffffffffffffffffffffe0018152919052805160209091012060d180547fffffffffffffffffffff0000000000000000000000000000000000000000ffff16620100006001600160a01b038416021790559050611f0a8c8860a081901b6001600160a01b0383161792915050565b60d281905550600160d06000306001600160a01b03166001600160a01b0316815260200190815260200160002060006101000a81548160ff021916908315150217905550600160d060008e6001600160a01b03166001600160a01b0316815260200190815260200160002060006101000a81548160ff021916908315150217905550600160d06000611f993390565b6001600160a01b03168152602081019190915260400160002080547fffffffffffffffffffffffffffffffffffffffffffffffffffffffffffffff0016911515919091179055505083159250610c30915050576000805461ff0019169055505050505050505050565b6001600160a01b0382166120585760405162461bcd60e51b815260206004820152601f60248201527f45524332303a206d696e7420746f20746865207a65726f2061646472657373006044820152606401610774565b806037600082825461206a9190613221565b90915550506001600160a01b03821660009081526035602052604081208054839290612097908490613221565b90915550506040518181526001600160a01b038316906000907fddf252ad1be2c89b69c2b068fc378daa952ba7f163c4a11628f55a4df523b3ef9060200160405180910390a35b5050565b6001600160a01b0381166000908152609b602052604090208054600181018255905b50919050565b6000610c55612117611a47565b836040517f19010000000000000000000000000000000000000000000000000000000000006020820152602281018390526042810182905260009060620160405160208183030381529060405280519060200120905092915050565b60007f7fffffffffffffffffffffffffffffff5d576e7357a4501ddfe92f46681b20a082111561220b5760405162461bcd60e51b815260206004820152602260248201527f45434453413a20696e76616c6964207369676e6174757265202773272076616c60448201527f75650000000000000000000000000000000000000000000000000000000000006064820152608401610774565b8360ff16601b148061222057508360ff16601c145b6122925760405162461bcd60e51b815260206004820152602260248201527f45434453413a20696e76616c6964207369676e6174757265202776272076616c60448201527f75650000000000000000000000000000000000000000000000000000000000006064820152608401610774565b6040805160008082526020820180845288905260ff871692820192909252606081018590526080810184905260019060a0016020604051602081039080840390855afa1580156122e6573d6000803e3d6000fd5b50506040517fffffffffffffffffffffffffffffffffffffffffffffffffffffffffffffffe001519150506001600160a01b0381166123675760405162461bcd60e51b815260206004820152601860248201527f45434453413a20696e76616c6964207369676e617475726500000000000000006044820152606401610774565b95945050505050565b6001600160a01b0383166123ec5760405162461bcd60e51b815260206004820152602560248201527f45524332303a207472616e736665722066726f6d20746865207a65726f20616460448201527f64726573730000000000000000000000000000000000000000000000000000006064820152608401610774565b6001600160a01b0382166124685760405162461bcd60e51b815260206004820152602360248201527f45524332303a207472616e7366657220746f20746865207a65726f206164647260448201527f65737300000000000000000000000000000000000000000000000000000000006064820152608401610774565b6001600160a01b038316600090815260356020526040902054818110156124f75760405162461bcd60e51b815260206004820152602660248201527f45524332303a207472616e7366657220616d6f756e742065786365656473206260448201527f616c616e636500000000000000000000000000000000000000000000000000006064820152608401610774565b6001600160a01b0380851660009081526035602052604080822085850390559185168152908120805484929061252e908490613221565b92505081905550826001600160a01b0316846001600160a01b03167fddf252ad1be2c89b69c2b068fc378daa952ba7f163c4a11628f55a4df523b3ef8460405161257a91815260200190565b60405180910390a3610ffa565b60006127106125968385613272565b6125a09190613239565b9392505050565b6040805160028082526060820183526000926020830190803683370190505090503081600081518110612603577f4e487b7100000000000000000000000000000000000000000000000000000000600052603260045260246000fd5b6001600160a01b03928316602091820292909201015260ce5482519116908290600190811061265b577f4e487b7100000000000000000000000000000000000000000000000000000000600052603260045260246000fd5b6001600160a01b039092166020928302919091018201523060009081526035909152604081205490506126a33073a5e0829caced8ffdd4de3c43696c57f7d7a678ff83611527565b60d2546040517f791ac94700000000000000000000000000000000000000000000000000000000815273a5e0829caced8ffdd4de3c43696c57f7d7a678ff9063791ac947906126ff9085906000908890879042906004016131b1565b600060405180830381600087803b15801561271957600080fd5b505af115801561272d573d6000803e3d6000fd5b50505050505050565b600054610100900460ff168061274f575060005460ff16155b6127c15760405162461bcd60e51b815260206004820152602e60248201527f496e697469616c697a61626c653a20636f6e747261637420697320616c72656160448201527f647920696e697469616c697a65640000000000000000000000000000000000006064820152608401610774565b600054610100900460ff161580156127e3576000805461ffff19166101011790555b603380547fffffffffffffffffffffffff000000000000000000000000000000000000000016339081179091556040516000907f8be0079c531659141344cd1fd0a4f28419497f9722a3daafe3b4186f6b6457e0908290a38015610888576000805461ff001916905550565b600054610100900460ff1680612868575060005460ff16155b6128da5760405162461bcd60e51b815260206004820152602e60248201527f496e697469616c697a61626c653a20636f6e747261637420697320616c72656160448201527f647920696e697469616c697a65640000000000000000000000000000000000006064820152608401610774565b600054610100900460ff161580156128fc576000805461ffff19166101011790555b612904612a36565b61290e8383612af7565b8015611721576000805461ff0019169055505050565b600054610100900460ff168061293d575060005460ff16155b6129af5760405162461bcd60e51b815260206004820152602e60248201527f496e697469616c697a61626c653a20636f6e747261637420697320616c72656160448201527f647920696e697469616c697a65640000000000000000000000000000000000006064820152608401610774565b600054610100900460ff161580156129d1576000805461ffff19166101011790555b6129d9612a36565b612a18826040518060400160405280600181526020017f3100000000000000000000000000000000000000000000000000000000000000815250612be2565b612a2182612cc2565b80156120de576000805461ff00191690555050565b600054610100900460ff1680612a4f575060005460ff16155b612ac15760405162461bcd60e51b815260206004820152602e60248201527f496e697469616c697a61626c653a20636f6e747261637420697320616c72656160448201527f647920696e697469616c697a65640000000000000000000000000000000000006064820152608401610774565b600054610100900460ff16158015612ae3576000805461ffff19166101011790555b8015610888576000805461ff001916905550565b600054610100900460ff1680612b10575060005460ff16155b612b825760405162461bcd60e51b815260206004820152602e60248201527f496e697469616c697a61626c653a20636f6e747261637420697320616c72656160448201527f647920696e697469616c697a65640000000000000000000000000000000000006064820152608401610774565b600054610100900460ff16158015612ba4576000805461ffff19166101011790555b8251612bb7906038906020860190612da8565b508151612bcb906039906020850190612da8565b508015611721576000805461ff0019169055505050565b600054610100900460ff1680612bfb575060005460ff16155b612c6d5760405162461bcd60e51b815260206004820152602e60248201527f496e697469616c697a61626c653a20636f6e747261637420697320616c72656160448201527f647920696e697469616c697a65640000000000000000000000000000000000006064820152608401610774565b600054610100900460ff16158015612c8f576000805461ffff19166101011790555b82516020808501919091208351918401919091206067919091556068558015611721576000805461ff0019169055505050565b600054610100900460ff1680612cdb575060005460ff16155b612d4d5760405162461bcd60e51b815260206004820152602e60248201527f496e697469616c697a61626c653a20636f6e747261637420697320616c72656160448201527f647920696e697469616c697a65640000000000000000000000000000000000006064820152608401610774565b600054610100900460ff16158015612d6f576000805461ffff19166101011790555b7f6e71edae12b1b97f4d1f60370fef10105fa2faae0126114a169c64845d6126c9609c5580156120de576000805461ff00191690555050565b828054612db4906132c6565b90600052602060002090601f016020900481019282612dd65760008555612e1c565b82601f10612def57805160ff1916838001178555612e1c565b82800160010185558215612e1c579182015b82811115612e1c578251825591602001919060010190612e01565b50612e28929150612e2c565b5090565b5b80821115612e285760008155600101612e2d565b80358015158114612e5157600080fd5b919050565b60008083601f840112612e67578182fd5b50813567ffffffffffffffff811115612e7e578182fd5b602083019150836020828501011115612e9657600080fd5b9250929050565b600060208284031215612eae578081fd5b81356125a081613343565b600060208284031215612eca578081fd5b81516125a081613343565b60008060408385031215612ee7578081fd5b8235612ef281613343565b91506020830135612f0281613343565b809150509250929050565b600080600060608486031215612f21578081fd5b8335612f2c81613343565b92506020840135612f3c81613343565b929592945050506040919091013590565b600080600080600080600060e0888a031215612f67578283fd5b8735612f7281613343565b96506020880135612f8281613343565b95506040880135945060608801359350608088013560ff81168114612fa5578384fd5b9699959850939692959460a0840135945060c09093013592915050565b60008060408385031215612fd4578182fd5b8235612fdf81613343565b9150612fed60208401612e41565b90509250929050565b60008060006040848603121561300a578283fd5b833561301581613343565b9250602084013567ffffffffffffffff811115613030578283fd5b61303c86828701612e56565b9497909650939450505050565b6000806040838503121561305b578182fd5b823561306681613343565b946020939093013593505050565b600060208284031215613085578081fd5b6125a082612e41565b60006020828403121561309f578081fd5b5035919050565b60008060008060008060008060c0898b0312156130c1578081fd5b883597506020890135965060408901356130da81613343565b9550606089013567ffffffffffffffff808211156130f6578283fd5b6131028c838d01612e56565b909750955060808b013591508082111561311a578283fd5b506131278b828c01612e56565b999c989b50969995989497949560a00135949350505050565b6000602080835283518082850152825b8181101561316c57858101830151858201604001528201613150565b8181111561317d5783604083870101525b50601f017fffffffffffffffffffffffffffffffffffffffffffffffffffffffffffffffe016929092016040019392505050565b600060a082018783526020878185015260a0604085015281875180845260c0860191508289019350845b818110156132005784516001600160a01b0316835293830193918301916001016131db565b50506001600160a01b03969096166060850152505050608001529392505050565b6000821982111561323457613234613314565b500190565b60008261326d577f4e487b710000000000000000000000000000000000000000000000000000000081526012600452602481fd5b500490565b6000817fffffffffffffffffffffffffffffffffffffffffffffffffffffffffffffffff04831182151516156132aa576132aa613314565b500290565b6000828210156132c1576132c1613314565b500390565b600181811c908216806132da57607f821691505b60208210811415612104577f4e487b7100000000000000000000000000000000000000000000000000000000600052602260045260246000fd5b7f4e487b7100000000000000000000000000000000000000000000000000000000600052601160045260246000fd5b6001600160a01b038116811461088857600080fdfea2646970667358221220b87c012d503108407469baad8c3b33f53b6d5e57cc2775c3292cde674a82374564736f6c63430008040033",
  "linkReferences": {},
  "deployedLinkReferences": {}
}